S00C0000554152542E73726563DC
S11300000C942A000C943F000C943F000C943F0085
S11300100C943F000C943F000C943F000C943F0060
S11300200C943F000C943F000C943F000C943F0050
S11300300C943F000C943F000C943F000C943F0040
S11300400C943F000C943F000C943F000C943F0030
S11300500C943F0011241FBECFE5D8E0DEBFCDBF16
S113006010E0A0E6B0E0EEE8F1E002C005900D92E9
S1130070A237B107D9F70E947B000C94C5000C94F9
S113008000008AB188618AB987E689B908955D9BC1
S1130090FECF8CB90895CF93DF93EC018881882338
S11300A031F021960E94470089918111FBCFDF91A5
S11300B0CF910895CF93DF93CDB7DEB72A970FB6CC
S11300C0F894DEBF0FBECDBF4AE0BE016F5F7F4F25
S11300D00E949000CE0101960E944B002A960FB612
S11300E0F894DEBF0FBECDBFDF91CF9108955F9B23
S11300F0FECF8CB108950E94410080E690E00E94FA
S11301004B0084E690E00E945A000E947700C82FBA
S113011080E790E00E944B008C2F0E944700FFCFA5
S1130120BB274A3031F4992322F4BDE2909581959E
S11301309F4F0C949C00BB27FB015527AA27880FCF
S1130140991FAA1FA41710F0A41B83955051B9F747
S1130150A05DAA3308F0A95DA193009779F7B111C6
S1130160B1931192CB010C94B500DC01FC01672F13
S113017071917723E1F7329704C07C916D9370837A
S11101806291AE17BF07C8F30895F894FFCF3D
S113018E2057454C434F4D4520554152540D2000A8
S105019E0D004E
S9030000FC
