S01B000050524F4A45435420534C41564520545241494C2E73726563BB
S11300000C942A000C943F000C943F000C943F0085
S11300100C943F000C943F000C943F000C943F0060
S11300200C943F000C943F000C943F000C943F0050
S11300300C943F000C943F000C943F000C943F0040
S11300400C943F000C943F000C943F000C943F0030
S11300500C943F0011241FBECFE5D8E0DEBFCDBF16
S113006010E0A0E6B0E0E0E5F4E002C005900D92F7
S1130070A23CB107D9F70E94BF010C9426020C944C
S113008000008130910529F487B3806B87BB6C9A9B
S113009003C0892B09F4BE9A8DB183648DB9089588
S11300A0779BFECF8FB108959BB321E030E002C06F
S11300B0220F331F8A95E2F7292B2BBB089595B3A2
S11300C021E030E002C0220F331F8A95E2F7292B8A
S11300D025BB08959BB321E030E002C0220F331FFB
S11300E08A95E2F7209529232BBB089595B321E047
S11300F030E002C0220F331F8A95E2F720952923AE
S113010025BB0895CF93C82F80E090E00E946A0039
S1130110C5BB82E090E00E945F002FEF81EE94E087
S1130120215080409040E1F700C0000082E090E060
S11301300E946A00CF910895CF93C82F80E090E089
S11301400E94760085B38F7085BB85B39C2F907F0A
S1130150892B85BB82E090E00E945F002FEF31EE97
S113016084E0215030408040E1F700C0000082E08C
S113017090E00E9476008FE99FE00197F1F700C0BC
S1130180000085B38F7085BB25B330E1C39FC001E8
S11301901124822B85BB82E090E00E945F008FEFE8
S11301A091EE24E0815090402040E1F700C000002F
S11301B082E090E00E947600CF910895049709F0C0
S11301C040C084B3806F84BB84B3876084BB88E2FF
S11301D00E9482008FE99FE00197F1F700C00000C0
S11301E081E00E949C008FE99FE00197F1F700C035
S11301F0000082E00E949C008FE99FE00197F1F7E4
S113020000C0000086E00E949C008FE99FE00197F7
S1130210F1F700C0000080E80E949C008FE99FE095
S11302200197F1F700C000008CE00E949C009FEF52
S113023021EE84E0915020408040E1F700C00000AE
S113024008958FEF84BB84B3856084BB88E30E94E8
S113025082008FE99FE00197F1F700C0000081E080
S11302600E9482008FE99FE00197F1F700C000002F
S113027082E00E9482008FE99FE00197F1F700C0BD
S1130280000086E00E9482008FE99FE00197F1F769
S113029000C0000080E80E9482008FE99FE001977F
S11302A0F1F700C000008CE00E9482009FEF21EE75
S11302B084E0915020408040E1F700C000000895A0
S11302C0CF93C82F85BBA89A85B38F7085BB85B3A0
S11302D09C2F907F892B85BB82E090E00E945F0079
S11302E02FEF31EE84E0215030408040E1F700C030
S11302F0000082E090E00E9476008FE99FE0019781
S1130300F1F700C0000085B38F7085BB25B330E1E1
S1130310C39FC0011124822B85BB82E090E00E9420
S11303205F008FEF91EE24E0815090402040E1F790
S113033000C0000082E090E00E947600CF91089512
S1130340CF93DF93EC018881882331F021960E94BA
S1130350600189918111FBCFDF91CF9108958FE9DD
S11303609FE00197F1F700C0000081E00E949C002B
S11303708FE99FE00197F1F700C0000008958FEF27
S11303808ABB80E090E00E94410084E090E00E94FB
S1130390DE000E9450008F7D813449F480E090E0BB
S11303A00E94540087E790E00E94A00143C0823479
S11303B049F480E090E00E946A0080E890E00E94A6
S11303C0A00138C0833449F481E090E00E945400D5
S11303D08AE890E00E94A0012DC0843449F481E0B1
S11303E090E00E946A0083E990E00E94A00122C08C
S11303F0853469F481E090E00E94540080E090E04C
S11304000E9454008DE990E00E94A00113C086343C
S113041069F481E090E00E946A0080E090E00E942C
S11304206A0089EA90E00E94A00104C086EB90E093
S11304300E94A0012FEF89E698E12150804090406E
S1130440E1F700C000000E94AF01A3CFF894FFCFF2
S113045057726F6E672044696D656E73696F6E7352
S113046021212E2E2E20004143545F315F4F4E0038
S11304704143545F315F4F4646004143545F325F0E
S11304804F4E004143545F325F4F464600424F5443
S1130490485F4143545F4F4E00424F54485F4143CD
S11304A0545F4F4646004E6F745F446566696E65DF
S10504B06400E2
S9030000FC
