S01C000050524F4A454354204D415354455220545241494C2E7372656369
S11300000C942A000C9434000C9434000C943400A6
S11300100C9434000C9434000C9434000C9434008C
S11300200C9434000C9434000C9434000C9434007C
S11300300C9434000C9434000C9434000C9434006C
S11300400C9434000C9434000C9434000C9434005C
S11300500C94340011241FBECFE5D8E0DEBFCDBF21
S11300600E9450000C9464000C9400008AB18861D2
S11300708AB987E689B908955F9BFECF8CB108954C
S1130080019729F487B3806B87BB6C9A01C0BE9A31
S11300908DB183648DB908958FB97F9BFECF089588
S11300A00E94360081E090E00E9440000E943C00E3
S11300B00E944C002FEF81EE94E02150804090404C
S10F00C0E1F700C00000F2CFF894FFCF7D
S9030000FC
